:1000000000800020BD010000130400001304000064
:100010001304000013040000130400001104000086
:10002000110400001104000011040000130400007A
:100030001304000011040000130400001504000064
:1000400013040000451F000013040000511F0000AE
:100050001304000013040000130400001304000044
:100060001304000013040000130400001304000034
:100070001304000013040000130400001304000024
:100080001304000013040000130400001304000014
:100090001304000013040000130400001304000004
:1000A00013040000130400001304000013040000F4
:1000B00013040000130400001304000013040000E4
:1000C00013040000130400001304000013040000D4
:1000D00013040000130400001304000013040000C4
:1000E00013040000130400001304000013040000B4
:1000F00013040000ED1000001304000013040000BE
:100100001304000013040000130400001304000093
:100110001304000013040000130400001304000083
:100120001304000013040000130400001304000073
:100130001304000013040000130400001304000063
:100140001304000013040000130400001304000053
:100150001304000013040000130400001304000043
:100160001304000021090000130400001304000020
:100170001304000013040000130400001304000023
:100180001304000013040000130400001304000013
:100190001304000013040000130400001304000003
:1001A00013040000130400001304000013040000F3
:1001B00013040000130400001304000038B5484B7A
:1001C0004CF220521A804DF628121A8000BF00BF50
:1001D000D32223F80E2C00221A81072223F80A2C9E
:1001E0004FF4A64223F8082C3E4B3F4A1A603F4A80
:1001F0005A603F4B1A7802F00802D2B21AB11A784C
:1002000042F008021A703B4B0A221A703A4B242221
:100210001A70A02203F8012C384A137803F0020365
:10022000DBB2002BF9D0354A137803F01003DBB2B0
:10023000002BF9D1314A137803F00C03082BFAD1C3
:100240002F4B03221A7040225A702C4A137803F065
:100250002003DBB2002BF9D0284A137803F04003C7
:10026000DBB2002BF9D0274A274B1A60274B2022FC
:100270001A70224A137803F00C030C2BFAD1244B8A
:1002800002221A60234A43F8442C234A00231360B5
:1002900062B6224A2248234C02E01959995004338D
:1002A00099188142F9D3204B204A002101E043F8FC
:1002B000041B9342FBD31E4B4BF67F321A6007227E
:1002C00043F8042C62B600F0F1F81A4C1A4D02E023
:1002D00054F8043B9847AC42FAD100F0B1FFFEE776
:1002E0000E20054038800440823F04000100002BAE
:1002F00002D007400050064001400640064006403C
:1003000004400640000003114480044000400640C1
:1003100048800440C010050008ED00E0C0B5FF1F94
:10032000C8B5FF1FC8240000C8B5FF1FC0C0FF1F0D
:1003300014E000E0C4240000C8240000FFFFFFFF19
:10034000FFFFFFFFFFFFFFFFFFFFFFFFFFFFFFFFBD
:10035000FFFFFFFFFFFFFFFFFFFFFFFFFFFFFFFFAD
:10036000FFFFFFFFFFFFFFFFFFFFFFFFFFFFFFFF9D
:10037000FFFFFFFFFFFFFFFFFFFFFFFFFFFFFFFF8D
:10038000FFFFFFFFFFFFFFFFFFFFFFFFFFFFFFFF7D
:10039000FFFFFFFFFFFFFFFFFFFFFFFFFFFFFFFF6D
:1003A000FFFFFFFFFFFFFFFFFFFFFFFFFFFFFFFF5D
:1003B000FFFFFFFFFFFFFFFFFFFFFFFFFFFFFFFF4D
:1003C000FFFFFFFFFFFFFFFFFFFFFFFFFFFFFFFF3D
:1003D000FFFFFFFFFFFFFFFFFFFFFFFFFFFFFFFF2D
:1003E000FFFFFFFFFFFFFFFFFFFFFFFFFFFFFFFF1D
:1003F000FFFFFFFFFFFFFFFFFFFFFFFFFFFFFFFF0D
:10040000FFFFFFFFFFFFFFFFFFFFFFFFFEFFFFFFFD
:10041000FEE7FEE7024B1A6801321A60704700BF20
:10042000C8B5FF1F014B1868704700BF00D00340DC
:10043000044B054900221A600A60044A1060102229
:100440001A60704714D0034004D0034000D003402A
:10045000002810B50FDB02024FF4807347F6FF74DB
:1004600000E00A46A24204D9013B012BC0EB020185
:10047000F7D1120A11E0404202024FF4807348F2B1
:10048000FF0400E00A46A24204D9013B012BC0EB65
:100490000201F7D1120AC2F58072013B024942EA19
:1004A00003220A6010BD00BF0CD00340104B114A5C
:1004B00000204BF6FF7110B518600F4C59602823CF
:1004C0001360936013619361136293621363936388
:1004D00009222260094C20600948016009490B602B
:1004E0008B60094B1A60BDE8104000F03DBC00BFB6
:1004F000048003400C8003400080034004900340CC
:10050000089003400C9003400090034010B5002376
:100510004FF4377242FA03F4A14202D80133072B99
:10052000F8D1164A42FA03F202EB5102B2FBF1F1A2
:1005300001394FF6FF72914228BF1146C21E012AAF
:1005400006D80F4A0F4C0020106020600E480FE0C4
:10055000421F012A06D9092804D00A2802D01438DB
:10056000032809D8094A0A4C002010602060094875
:1005700043F008030160136010BD00BF006CDC0293
:100580000090034004900340089003400080034023
:100590000480034008800340212810B518D80D4A74
:1005A00052F8303093F880423CB1012211B183F807
:1005B000802010BD83F8002110BD02EBC00043680D
:1005C0001A6811B142F0030201E022F002021A603F
:1005D00010BD00BFB41F0000212805D8034B53F8FD
:1005E000303093F80002704700207047B41F0000BD
:1005F000212816D80B4A02EBC00301295B6852F888
:10060000302004D182F880124FF4A27208E000205A
:1006100082F8800211B94FF4807201E040F20312B7
:100620001A607047B41F0000002910B5044601DCB1
:1006300000215EE0FF2901D901215AE0C21ED3B298
:10064000012B94BF2F4B304B1B6801334B431B0ACC
:10065000142A49D8DFE802F00B11171D4848232956
:100660004848484848484848482F353B4100274AB1
:1006700013604FF45172264B34E0264A13604FF456
:100680005172254B2EE0254A136040F24442244B20
:1006900028E0244A136040F24442234B22E0234ADC
:1006A000136040F24442224B1CE0224A136040F2A5
:1006B0004442214B16E0214A136040F24442204B51
:1006C00010E0204A136040F244421F4B0AE01F4AE8
:1006D000136040F244421E4B04E01E4A13601E4B5E
:1006E00040F244421A6010BD7F292046D4BF002149
:1006F0000121FFF751FF20460121BDE81040FFF71F
:1007000077BF00BF0890034008800340109003406B
:1007100030900440189003403490044048800340D7
:100720001CC004403080034010C0044020800340BF
:100730000CB004402880034010B0044038800340CF
:1007400014C004404080034018C00440108003409F
:1007500004B004401880034008B0044072B60B4B4C
:100760000B491A680B4B1B68096862B6490102D530
:10077000322A88BF0133C2F53B427F323021B2FBBF
:10078000F1F24FF47A7000FB0320704718E000E0AC
:1007900004ED00E0C8B5FF1F70B50446FFF7DEFFAB
:1007A00005465CB140F2E736FFF7D8FF401BB04288
:1007B000FAD9013C02D005F57A75F5E770BD00BFA6
:1007C0007FB5174B174922221A7003225A70164B15
:1007D0001B680393154B1B680293154B1B68019311
:1007E000144B1B680093144B00221DF802000132C9
:1007F00043404B43102AF8D10A4E094D00221A21DA
:100800001DF8020043407343B3FBF1F405EB4200D3
:1008100001FB143401324134102A4480F0D17FBDF1
:10082000CCB5FF1F93010001548004405880044060
:100830005C80044060800440C59D1C8170B5134CF1
:1008400094F8802004F14005002A08BF25460023C3
:1008500002E0C65CEE5401338B42FAD194F8811069
:1008600000290CBF8820C82040EA034342F002055B
:10087000074840F83530054B81F0010182F0010254
:1008800083F8811083F8802070BD00BFF0B5FF1F92
:100890000080FF1F70B50446124E56F8343006EB48
:1008A000C0051B0C686814D020F8043D00F0C0FCA3
:1008B00058B972B60C4B012202FA04F493F8822064
:1008C000144383F8824062B670BD00F0A7FA04308A
:1008D0006860064B064A15F0080F08BF134646F835
:1008E000343070BD0080FF1FF0B5FF1FC80040000E
:1008F0008800400038B572B6084B002593F8824056
:1009000083F8825062B606E0E30702D52846FFF777
:10091000C1FF01356408002CF6D138BDF0B5FF1FCA
:100920002DE9F0410026AF4A137803F00401C9B263
:1009300009B10421117003F00802D2B2002A00F0BC
:10094000B981A94B187801090B46002940F0A7810D
:10095000A64D800805EBC002576855F83020C2F359
:100960008302092A00F070810D2A03D0012A40F089
:10097000928165E19E4C84CFC4F88C20C4F89070BD
:100980009C4FC4F8941045F83070012084F8810021
:1009900092B200F56870824200F0D5801AD8B2F5A4
:1009A000817F00F0828007D8802A60D0822A63D0BD
:1009B000212A40F0F280E6E0B2F5E07FC0F0ED8061
:1009C000B2F5E17FC0F0A98040F202339A4240F0D4
:1009D000E4807BE040F281618A420DD8B2F5D06FAD
:1009E00080F08780B2F5A06F00F0DB8040F2A15369
:1009F0009A4240F0D280BBE0B2F5106F0CD004D820
:100A0000B2F5086F40F0C9802AE0A2F5FD42403AF5
:100A1000012A00F2C2808AE094F88E3084F898307F
:100A20002B6A180603D5686A083800F01DFA724B65
:100A3000724A1B78137003F00803DBB263B100F055
:100A4000EDF96A4C6E4B04302362606200F0E6F907
:100A5000684B0430E062A362644B1E639E639AE0BD
:100A6000634C94F8983004F8833F0123A0E084F8A5
:100A7000831084F8841096E05D4CB4F89030012B1C
:100A800000D98AE09A005F4B84F88360D31884F819
:100A900084601B7803F00203DBB2002B00F083803C
:100AA000012304F8833F022382E0B4F8902002F08F
:100AB0007F03012B71DCB4F88E3003B16DE091003F
:100AC000504A8A18117821F0020110E0484BB3F81F
:100AD000902002F07F0101295FDCB3F88E3003B172
:100AE0005BE09100474A8A18117841F002011170C9
:100AF00057E0B4F88E20444B53F8084CA3F10C0196
:100B0000002C4AD00C3333F8180C9042F4D1120A5E
:100B1000032A00D115E00B894AE0354BB3F8903039
:100B200013B1012B39D141E00423384C40E0304B64
:100B3000B3F89030042B01D1354C02E0052B2CD1B9
:100B4000344C237834E0B4F89030012B00D024E00A
:100B500084F8843094F8993084F8831084F88730CE
:100B600084F8851084F8861084F8881006231BE02A
:100B70001F4CB4F89030012B00D00EE094F899206F
:100B800004F8832F14E01A4BB3F89020012A00D008
:100B900003E083F89920002303E01A4B0F221A7018
:100BA0004BE01C4604E00223833401E01A4C04238A
:100BB0000F4AB2F89270BB4238BF1F46402F34BF75
:100BC0003D46402520462946FFF738FE7F1B2C4432
:100BD00002D1402D22D030E0402F34BF3D46402589
:100BE0001DE000BF80200740902007400080FF1FCD
:100BF000F0B5FF1FC8004000C4200000C42007401B
:100C000088004000C0200740D4200000B8C0FF1F6B
:100C1000C621000034210000BCC0FF1F3D46204615
:100C20002946FFF70BFE7F1B2C4401D1402D04D138
:100C3000424AC2F89440A2F89A700122404B29E03F
:100C4000404B45F8303026E03C4FD7F89450B5B1D2
:100C5000B7F89A80B8F1400F34BF44464024284684
:100C60002146FFF7EBFDC4EB08039BB2A7F89A30CF
:100C70000BB9402C00D12B19304AC2F894302F4BBD
:100C8000B3F88C20B2F5A06F05D183F88D6093F88E
:100C90008E202D4B1A702A4B01221A7006E000F0AC
:100CA0000803DBB213B98008FFF7F4FD274B0822D5
:100CB0001A7038E6D90726D521482049244C02234A
:100CC0000370244B81F880201C609C60596101F105
:100CD0009C0501F1DC0440311A619A61D9615D60C3
:100CE000DC601D4B0D2119701C49FF230B7001F8AE
:100CF000083C0A741A4A13701A4B9F221A70012377
:100D00000370BDE8F0811A0605D5134A0D21117054
:100D1000802102F8401C03F00202D2B22AB10F4A2D
:100D200011781170022102F8081C03F01003DBB2E5
:100D300013B1064B10221A70BDE8F081F0B5FF1F09
:100D400094200740C80040009820074080200740BA
:100D5000880040000080FF1FC02007408820074017
:100D60008C2007408420074008B500F04BF8FFF7BF
:100D700027FD1E4B00221A609A601A619A611A625E
:100D80005A60DA605A61DA615A62194A116841F4AC
:100D900080211160174A8021117010460178154A90
:100DA0000906FBD41449C3F307200870C3F30740B6
:100DB0001B0E08750B76FF2301F81C3C01F8143C50
:100DC00001F88C3C137843F0400313700021012399
:100DD00002F8783C02F80C1C02F8883C074B4FF4F0
:100DE00000721A60064B10221A7008BD0080FF1FA7
:100DF000348004400C2107409C20074008E100E0BB
:100E000008210740044B4FF0FF321A605A609A6085
:100E1000DA601A615A6170470CB7FF1F10B572B6DD
:100E20000F4A002352F8231011B90133062BF9D1D0
:100E3000B1FA81F202EB4312AF2A00D9FEE702F0C9
:100E40001F004FF0004424FA00F021EA000104489A
:100E500040F8231062B6034B442000FB023010BD63
:100E60000CB7FF1F0087FF1F0B4B4422C01AB0FBBB
:100E7000F2F0AF280ED8420972B6084B4FF000418D
:100E800000F01F0021FA00F053F82210014343F84C
:100E9000221062B6704700BF0087FF1F0CB7FF1F0C
:100EA00072B6044B4AF202621A804BF280421A80F8
:100EB00062B670470C200540164B1A6842F48062F7
:100EC0001A60154B00221A705A709A70DA701A71F3
:100ED000124B40F213321A604FF451725A60104BA9
:100EE000C0F344321A70C0F347125A7000F01F006A
:100EF0000C4A98720221042313705174D3740A4B64
:100F000088221A703C2203F80D2C084B4FF4005233
:100F10001A6070473480044024B7FF1F40A004408B
:100F200000A0064002A0064010A0064004E100E038
:100F30000D4B1B685B0510B503D410BDFFF7B0FF68
:100F400000E00A4C2379094A002BF7D108494FF4F5
:100F500000500860074908480B7040F20311016017
:100F600041601370537010BD3480044024B7FF1FDC
:100F700084E100E003A0064040A004400E4B1B6843
:100F80005A0570B5064615D50C4B9C7801341D46A4
:100F9000072C88BF002401E0FFF782FFEA78074BA7
:100FA000A242F9D01A19567101221A719C70044B91
:100FB000BC221A7070BD00BF3480044024B7FF1FEC
:100FC00003A0064000F00F00092801D8303000E0EF
:100FD0003730FFF7D3BF2DE9F84F174B1B688B460F
:100FE0005905074626D5154CDFF854A00646A146FC
:100FF00019E0A57899F803800135072D88BF0025F1
:10100000A84507D0631916F8012B5A7101232371E3
:10101000A57008E0BC238AF80030FFF741FFE378B1
:101020004345FAD0EEE707EB0B039E42E1D3044BB6
:10103000BC221A70BDE8F88F3480044024B7FF1F2B
:1010400003A0064010B5044C01E0FFF729FF237907
:10105000002BFAD110BD00BF24B7FF1F034A107840
:101060005378984238BF0830C01A704724B7FF1F22
:10107000084A11785378994208D00133DBB2072B24
:1010800088BF0023D118487B537070474FF0FF3062
:10109000704700BF24B7FF1F054B19785A7891425B
:1010A00002D09B18587B70474FF0FF30704700BF4D
:1010B00024B7FF1F094B1B6858050ED5084B1A783B
:1010C00002F0CB021A70074A402111701A7842F0E0
:1010D00034021A70044B5A781A70704734800440F6
:1010E00003A0064011A0064024B7FF1FF0B52F4B08
:1010F0001B7813F0300F21D072B62D4B197831B90F
:101100000F3B40221B782B4B1A7062B616E062B67A
:10111000294B2A4C1A7858781D46531CDBB2072BF2
:1011200088BF00238342267802D0EA1856731A46F5
:10113000013911F0FF01F0D11F4B1A70204B1B78C1
:1011400018465BB2002B1FDA18490B781A061BD51C
:10115000194A1A4E97781B4DD378BB420BD00133F6
:10116000DBB2072B88BF00230C78D4186479347065
:101170002C78072CF1D9104AD3700C4B1B781B0626
:1011800002D50F4B7C221A7000F04003DBB25BB13A
:10119000064B1B7803F04003DBB22BB1064B002259
:1011A0001A71074B3C221A70F0BD00BF04A0064024
:1011B00016A0064011A0064024B7FF1F07A0064056
:1011C00003A0064014A0064038B5451E07E00A2CCF
:1011D00002D10D20FFF7D2FE2046FFF7CFFE15F813
:1011E000014F002CF3D138BD10B504460009FFF7BC
:1011F000E9FE2046BDE81040FFF7E4BE10B5044606
:10120000000AFFF7F1FF2046BDE81040FFF7ECBFF2
:1012100010B50446000EFFF7E7FF200CFFF7E4FFD0
:10122000200AFFF7E1FF2046BDE81040FFF7DCBFD2
:10123000014608B5014800F08BF808BD3CB7FF1F18
:1012400073B50D200121FFF7D3F91948194D1A4C38
:10125000A0F5357100F070FE154800F019FD40232F
:101260008DF8043000238DF805308DF80630019993
:101270000F4800F0A7F940F24130FFF71DFE0F487C
:10128000FFF7A2FF4AF202660EE072B64BF280430D
:101290002680238062B600F0A0FC094800F0D2F856
:1012A000084B1A6801321A602B78002BEDD0FEE74C
:1012B00010BAFF1F89B6FF1F0C200540AC220000AA
:1012C0003CB7FF1FB8C0FF1FF8B50E4C04F10C0768
:1012D00004F1D406384600F017F804F5CE75304610
:1012E00000F012F8284600F00FF804F5197000F02D
:1012F0001DF804F5357027606660A560BDE8F8400C
:1013000000F068B93CB7FF1F70B5002405462646BB
:10131000FFF784FD0023C2180133402B1671FAD168
:1013200028510434C42CF3D1284670BD70B5002474
:1013300005462646FFF772FD0023C2180133402BF5
:101340001671FAD128510434642CF3D1284670BDAB
:1013500038B50B7903F0200503F01F0203F0C0033A
:10136000402B0446EDB208461CD001D82BB130E02A
:10137000802B27D0C02B2CD128E094F8CF1271BB42
:1013800094F8CD32D218302AA36804D853F822102A
:1013900043F822000846FFF767FDE5B1012384F812
:1013A000CF3218E0182A06D804EB8202D2F8643251
:1013B000C2F864121846FFF757FD65B1012384F89F
:1013C000D03208E04B7984F8CC3202E04B7984F8D3
:1013D000CD32FFF749FD012084F8CE0238BD184612
:1013E00038BD094A83681268016882B00192019A87
:1013F000C3F8C4204268816080E80C00034B1A687F
:1014000001321A6002B07047C8B5FF1FBCC0FF1F91
:1014100070B50B4D00231F2140F20334B3FBF1F2F2
:1014200000EB820601FB1232D6F8646206EB420240
:10143000D288520825F813200133A342EED170BDA3
:1014400012BAFF1F38B590F8CC3203F00402D2B2C2
:1014500004461AB103F00803DAB201E090F8CE2294
:1014600020230AB10D4A00E00D4A136094F8CF32F0
:10147000002584F8CE5223B12046FFF7B2FF84F84E
:10148000CF5294F8D0322BB12046FFF7C1FF002392
:1014900084F8D032BDE83840FFF72CBA84F00F4012
:1014A00088F00F40002380E80A008360704782685C
:1014B0000068131A5842584170478068D0F1010003
:1014C00038BF0020704783684268D218036892FBD7
:1014D000F3F003FB1020704742680368013292FB6F
:1014E000F3F103FB112343608368013B8360704782
:1014F00083680268934207D14268013292FBF3F19C
:1015000003FB1123436070470133836070474068D9
:101510007047FFFF4B7843700B7803708B788370B4
:10152000704782B001919DF8043003709DF8063039
:10153000C1F307214170837002B07047014B1970ED
:10154000704700BFC0B5FF1F094B1B78012B04D0AB
:101550000CD3022B04D000207047064B185C704758
:10156000044B181890F800010001C0B2704700BF8A
:10157000C0B5FF1FBE220000064B2022197018467E
:1015800009B1022902D14280828070475A809A8034
:10159000704700BFC2B5FF1F014B5888704700BF9E
:1015A000C2B5FF1F014B9888704700BFC2B5FF1F2F
:1015B000034BC1F1FF01012219601A71704700BF8E
:1015C00018C0FF1F024882B002B0FFF7AABF00BFD9
:1015D0001DC0FF1F7047154B1548F0B51E68154B11
:1015E00042F667371D6840F2DF1C0023C3F10B028F
:1015F00047FA02F294B204F11501724389B292FBE8
:10160000F5F21532614592B206D8C4F5E57401349D
:10161000121992B24FF4F07100EB8304618020F84C
:10162000232001330C2BE1D1F0BD00BF18C0FF1FF8
:1016300020C0FF1FC02400002DE9F04FAE4F8BB03B
:1016400007EB8003029007F17000B3F83280B3F823
:101650003090FFF738FF4FF00C0CC0B2A7490023C1
:101660000CFB00FC07EB830A0CEB030E01EBCE0234
:10167000BAF802A0A2F80490A2F80680A2F802A08C
:1016800037F8232001330C2B21F83E20EAD1029AAF
:1016900052010692029A02F110035B010793984BE4
:1016A0004FF4407202FB003000238DE80900954F93
:1016B0007A783B78B97843EA022343EA014108A8E3
:1016C000FFF72FFF3B787A78B97843EA022343EAA1
:1016D000014109A8FFF725FF874BD96F002900F0CA
:1016E0001981019ADDF818C0086802EB0C0815276B
:1016F000B8FBF7FC07FB1C884FF0030B50F82C20BD
:101700000BFB08F808F1010802EB080909F10402D3
:1017100005924A6852F82C00D3F88020D3F8843020
:10172000804408F1040C98F804A099F804807648E5
:1017300002FB08F803FB0A88C8F307494FEA186858
:1017400009F1807A4FEA0949C9EB0A0950F8188073
:1017500029FB18F905984FEAD91990F80180CDF8BE
:101760000C909CF80190694802FB08F803FB09887B
:10177000C8F307494FEA186809F1807A4FEA094926
:10178000C9EB0A0950F8188029FB18F905989CF84C
:1017900002C090F8028002FB08F003FB0C00C0F3CB
:1017A000074C0CF180784FEA0C4CCCEB080C4FEA5C
:1017B000106857484FEAD919CDF8109050F81880A2
:1017C0002CFB18FC4FEADC1C0198CDF814C0DDF8A6
:1017D0001CC000EB0C09B9FBF7F8086850F828C0EA
:1017E000486807FB18990BFB09F950F82880464810
:1017F00009F101090CEB0907C14409F1040899F842
:1018000004A097F8049002FB09F903FB0A99C9F3B5
:10181000074A4FEA196907F1040C0AF180774FEA89
:101820000A4ACAEB070A50F819702AFB17F79CF806
:10183000019098F801A0354802FB09F903FB0A99C9
:10184000C9F3074A4FEA19690AF1807B4FEA0A4A4D
:10185000CAEB0B0AFF0950F819B02AFB1BFA9CF8D7
:1018600002C098F802802A4802FB0CF203FB08230E
:10187000C3F307421B0E02F1807C12044FEADA1A0E
:10188000C2EB0C0250F8133022FB13F291F8CC3269
:10189000D209DB070CD4039BDDF810C0059899B280
:1018A0001FFA8CF983B2BFB21FFA8AFA92B217E01C
:1018B000039B0598DDF810C003F47F4100F47F43DB
:1018C000029807F47F470AF47F4A02F47F420CF43F
:1018D0007F4928B9019818B94FF6FF739946194600
:1018E0004FEA11184FEA19194FEA131B3F094FEA43
:1018F0001A1A10092BE000BF20C0FF1F4080FF1FF5
:101900000081FF1F1DC0FF1F12BAFF1F14BCFF1F65
:1019100016BEFF1F9DF82000FFF716FE80469DF8BB
:101920002100FFF711FE81469DF82200FFF70CFE13
:1019300083469DF82400FFF707FE07469DF8250023
:10194000FFF702FE82469DF82600FFF7FDFD6FF3CC
:1019500041066FF3C3066BF3041668F3000667F3E2
:10196000861669F3C7166AF3820660F345166FF3AD
:1019700049264FEA6B036FF3CB2663F30C364FEA2D
:10198000680363F308267B1063F38E364FEA69031E
:1019900063F3CF364FEA6A0363F38A26431063F397
:1019A0004D366FF351464FEAAB036FF3D34663F303
:1019B00014564FEAA80363F31046BB1063F3965620
:1019C0004FEAA90363F3D7564FEAAA0363F392469B
:1019D000831063F355566FF359664FEAEB036FF3C9
:1019E000DB6663F31C764FEAE80363F31866FB10CB
:1019F00063F39E764FEAE90363F3DF764FEAEA0387
:101A000063F39A666FF34105C31063F35D766FF37A
:101A1000C3054FEA2B1363F304154FEA281363F34E
:101A200000053B1163F386154FEA291363F3C715CD
:101A30004FEA2A1363F38205031163F345156FF32D
:101A400049254FEA6B136FF3CB2563F30C354FEA4F
:101A5000681363F308257B1163F38E354FEA69132E
:101A600063F3CF354FEA6A1363F38A25431163F3B7
:101A70004D356FF351454FEAAB136FF3D34563F325
:101A800014554FEAA81363F31045BB1163F3965541
:101A90004FEAA91363F3D7554FEAAA1363F39245AC
:101AA000831163F355556FF359654FEAEB136FF3E9
:101AB000DB6563F31C754FEAE81363F31865FB11EC
:101AC00063F39E754FEAE91363F3DF754FEAEA1398
:101AD00063F39A656FF34104C31163F35D756FF3AC
:101AE000C3044FEA2B2363F304144FEA282363F360
:101AF00000043B1263F386144FEA292363F3C714EF
:101B00004FEA2A2363F38204031263F345146FF34D
:101B100049244FEA6B236FF3CB2463F30C344FEA71
:101B2000682363F308247B1263F38E344FEA69233E
:101B300063F3CF344FEA6A2363F38A24431263F3D7
:101B40004D346FF351444FEAAB236FF3D34463F347
:101B500014544FEAA82363F31044BB1263F3965462
:101B60004FEAA92363F3D7544FEAAA2363F39244BD
:101B7000831263F355546FF359646FF3DB644FEAD8
:101B8000EB2B6BF31C744FEAE828FF1268F3186420
:101B900067F39E744FEAE929009A69F3DF744FEA0C
:101BA000EA2AC01246F002336AF39A64D36060F303
:101BB0005D7445F00233136144F002335361019BBD
:101BC00016600133556094601832202B8DE80C00AC
:101BD0007FF46DAD0BB0BDE8F08F37B5284C04F144
:101BE0007000FFF764FC002849D194F88850002D5C
:101BF00033D1E26F52B392F8CC3203F00203DBB27E
:101C000093B9204B50681B6812680193D0F8C41038
:101C1000019BD2F8C4205B1A8A1A934228BF13464C
:101C20001B04B3FBF2F301E04FF480336FF48071D7
:101C3000134A594301F18071C2F88C3001F58031AB
:101C400003EB0323C2F88010C2F884300E4C2378D3
:101C50001BB1FFF7C0FC002323700135EDB20F2D3F
:101C6000074B02D883F8885002E0002283F88820CE
:101C700093F88800FFF7E0FC0448FFF739FC3EBD0D
:101C800020C0FF1FC8B5FF1F1CC0FF1F90C0FF1F53
:101C90002DE9F84F02218548FFF704FC0023844911
:101CA0001A460824C81812F001050CBF458044806C
:101CB000960704D5C818458845F010054580550796
:101CC00004D5C818458845F002054580100704D59D
:101CD000C818458845F004054580C8180132408879
:101CE000C04300F01E00C8520433102ADAD1FFF7B7
:101CF00072FCFFF772FF0E200121FEF779FC06202F
:101D00000121FEF775FC02200121FEF771FC152070
:101D10000121FEF76DFC05200121FEF769FC07207B
:101D20000121FEF765FC14200121FEF761FC09206A
:101D30000121FEF75DFC0A200121FEF759FC162067
:101D40000121FEF755FC17200121FEF751FC594AED
:101D50005949DFF8CC81594FDFF8C8C1DFF8C8A175
:101D6000DFF8C891DFF8C8B1002313601520536075
:101D700042F667320A608860C8F80020504A11684D
:101D800041F4517111604F494FF45170086011686E
:101D90004D4841F4803111604C4A116841F40031E2
:101DA00041F4807111604A4A116841F002011160EA
:101DB00052F8041C41F0020142F8041C454A8021FB
:101DC0001160454A3B60037013708CF800309370CB
:101DD000424A08214FF6FC7640F20224C2F800A0E5
:101DE0009680D160D4803E4C94603E4C14613E4C51
:101DF00096824FF490759161012222802281E580C4
:101E00003A4DB12404703A482C1D0460394C02202C
:101E100020800424C9F8004040F20119ABF800907A
:101E2000CBF80240CBF80AA0DFF808A1AAF80060BE
:101E3000314E316026F8022CF280B380B560B0815B
:101E40007461A6F80E9034612C4C4FF6F076C4F80D
:101E50000080A6802026A660E280E281284A4FF416
:101E600048741480B4228CF80020264A264CC035D1
:101E70001560264D0C222280A36063806560244D8E
:101E8000E56023826361234B1A801A81D880224A3D
:101E9000224BFF241960147018600F233B60054B20
:101EA0000BF10A0B1960BDE8F88F00BF90C0FF1F4F
:101EB00050C0FF1F00900340089003400C8000407A
:101EC0003090044034900440001002400CC00440A4
:101ED000408004400080004001100240009000401B
:101EE000082000C088F00F40169000404080FF1F7F
:101EF00020900040249000403890004050900040D6
:101F00005C90004060900040649000404004F4BF4A
:101F1000C0F00F407690004001E400E000E100E0F6
:101F20001890034002100240B4C0FF1F2C900040E4
:101F30002690004034900040014BD967704700BFA5
:101F400020C0FF1F014B01221A7070471F80004004
:101F500010B5114C2046FFF7BFFA2046FFF7D7FA1D
:101F60000E4B0F49602202FB0032141D0C60C0337F
:101F70000A624FF4407202FB00300A4A0A4B1060BA
:101F80001A6842F080721A60084B02221A60084BED
:101F900003221A7010BD00BF90C0FF1F4080FF1FBA
:101FA00020900040609000403090044000E200E04B
:101FB0001F8000404008FE4340A004404408FE4308
:101FC00044A004400018FE4300C004403000FE431B
:101FD000309004403400FE43349004401C18FE430B
:101FE0001CC004401018FE4310C004400818FE43F3
:101FF00008C004400C18FE430CC004400C10FE4303
:102000000CB004401010FE4310B004401810FE4302
:1020100018B004401C10FE431CB004401410FE43D2
:1020200014B004400418FE4304C004400010FE43F2
:1020300000B004400008FE4300A004400408FE4332
:1020400004A004400C08FE430CA004400808FE4312
:1020500008A004401418FE4314C004401818FE439E
:1020600018C004400410FE4304B004400810FE43AE
:1020700008B004401400FE43149004404C08FE4392
:102080004CA004400420FE4304D004402410FE432E
:1020900024B004402010FE4320B004402810FE432A
:1020A00028B004402C10FE432CB004400020FE4316
:1020B00000D004404808FE4348A004401000FE43FE
:1020C00010900440190000000001000006220000EA
:1020D0001200000000020000182200002B00000087
:1020E0000003000044220000000000000103000083
:1020F0004822000000000000020300005A220000F5
:102100000000000003030000CCB5FF1F000000002A
:10211000040300006E22000000000000EE03000037
:1021200098220000000000000000000000000000F5
:10213000000000009200000000010500010088007E
:102140000000070000002A004400650076006900D6
:102150006300650049006E0074006500720066004F
:1021600061006300650047005500490044007300AA
:102170000000500000007B00360032006600640062
:1021800034003100320033002D0038003700650084
:1021900033002D0034003700660065002D00390043
:1021A0003400360061002D0065003000340034003A
:1021B00066003300360066003200660062003300BD
:1021C0007D0000000000400000000001040002004B
:1021D000000000000000000157494E555342000026
:1021E00000000000000000000000000000000101ED
:1021F00057494E5553420000000000000000000007
:102200000000000000001201000200000040501D0C
:102210007A6008010102030109022B00020100801B
:10222000320904000001FF00000007050102400020
:10223000000904010000FE01010409210D1027001E
:102240000401010004030904120373006300610028
:102250006E006C0069006D006500140346006100AB
:1022600064006500630061006E00640079002A0369
:102270004600610064006500630061006E00640058
:102280007900200042006F006F0074006C006F0046
:10229000610064006500720012034D0053004600A7
:1022A00054003100300030007E000000466164655B
:1022B00063616E64792076312E30380D0A0000009B
:1022C00000000000010101010101010101020202FF
:1022D00002020202020203030303030303030404D2
:1022E0000404040405050505050606060606070799
:1022F0000707080808080909090A0A0A0A0B0B0B4C
:102300000C0C0C0D0D0D0E0E0F0F0F1010111111E6
:102310001212131314141515161617171818191965
:102320001A1A1B1C1C1D1D1E1F1F202021222223C8
:1023300024252526272728292A2B2B2C2D2E2F2F05
:1023400030313233343536363738393A3B3C3D3E1E
:102350003F4041424344464748494A4B4C4D4F5009
:10236000515253555657585A5B5C5E5F60626364C6
:102370006667696A6C6D6E707173747678797B7C50
:102380007E8081838486888A8B8D8F9192949698A3
:102390009A9B9D9FA1A3A5A7A9ABADAFB1B3B5B7BC
:1023A000B9BBBDBFC1C4C6C8CACCCFD1D3D6D8DA99
:1023B000DCDFE1E4E6E8EBEDF0F2F5F7FAFC000033
:1023C000000000000000000000000000000000000D
:1023D00000000000000000000000000000000000FD
:1023E00000000000000000000000000000000000ED
:1023F00000000000000000000000000000000000DD
:1024000001010101010101010101010101010101BC
:1024100001010101010101010101010101010101AC
:102420000101010102020202020202020202020290
:102430000202020202020202020202030303030377
:102440000303030303030303030303030304040459
:102450000404040404040404040404040505050538
:102460000505050505050505050606060606060615
:1024700006060606060707070707070707070707F1
:1024800008080808080808080808090909090909C6
:102490000909090A0A0A0A0A0A0A0A0A0B0B0B0B9B
:1024A0000B0B0B0B0C0C0C0C0C0C0C0C0D0D0D0D6C
:1024B0000D0D0D0E0E0E0E0E0E0E0F0F0F0FFFFF59
:0824C000FF000000C91200003A
:0824C8000100000020002000CB
:00000001FF
